:1000000013C037C036C035C034C033C032C031C071
:1000100030C02FC02EC02DC02CC02BC02AC029C07C
:1000200028C027C026C04E0011241FBECFE5D4E053
:10003000DEBFCDBF10E0A0E6B0E0ECEAF1E002C028
:1000400005900D92AC36B107D9F710E0ACE6B0E000
:1000500001C01D92AD36B107E1F710E0C8E2D0E073
:1000600003C02297FE019CD0C632D107D1F707D03A
:100070009BC0C6CF81E087BB82E088BB0895FADFD2
:10008000B19B03C088B3827002C088B3836088BB11
:100090008CE690E060E670E026D0F2CF8CE690E04F
:1000A00060E875E241E001D008951F93142F9B0191
:1000B00040E050E060E271EA87E090E032D0215009
:1000C000304030BD29B988E18AB9113011F486E891
:1000D00003C0123011F48EE880BD1F9108955D9B1E
:1000E000FECF6CB908950F931F93CF93DF93EC016C
:1000F0008B010AC08A3019F4CE016DE0F0DFF801FF
:1001000061918F01CE01EBDFF8018081882391F7A7
:10011000DF91CF911F910F9108955F9BFECF8CB11E
:10012000089597FB092E05260ED057FD04D014D054
:100130000AD0001C38F450954095309521953F4FDA
:100140004F4F5F4F0895F6F79095809570956195A4
:100150007F4F8F4F9F4F0895A1E21A2EAA1BBB1B02
:10016000FD010DC0AA1FBB1FEE1FFF1FA217B30783
:10017000E407F50720F0A21BB30BE40BF50B661F99
:10018000771F881F991F1A9469F76095709580955D
:1001900090959B01AC01BD01CF010895EE0FFF1FAB
:0C01A0000590F491E02D0994F894FFCF35
:0C01AC005445535420535452494E470010
:00000001FF
