:1000000012C024C023C022C021C020C01FC01EC0F7
:100010001DC01CC01BC01AC019C018C017C016C014
:1000200015C014C013C011241FBECFE5D4E0DEBF3D
:10003000CDBF10E0A0E6B0E0ECE5F1E002C0059035
:100040000D92AC36B107D9F739D086C0D9CF1F93FE
:10005000162F9C0140E050E060E271EA87E090E0FA
:100060003ED02150304030BD29B988E18AB91130E5
:1000700011F486E803C0123011F48EE880BD1F91A0
:10008000089581E087BB82E088BB80E895E261E06B
:10009000DEDF08955D9BFECF8CB90895CF93DF938B
:1000A000EC0106C08A3011F48DE0F4DF8991F2DFB3
:1000B00088818823B9F7DF91CF910895E2DFB19B62
:1000C00003C088B3827002C088B3836088BB80E6B7
:1000D00090E0E4DFF4CF5F9BFECF8CB1089597FBF7
:1000E000092E05260ED057FD04D014D00AD0001CCE
:1000F00038F450954095309521953F4F4F4F5F4FC5
:100100000895F6F790958095709561957F4F8F4F84
:100110009F4F0895A1E21A2EAA1BBB1BFD010DC023
:10012000AA1FBB1FEE1FFF1FA217B307E407F507A7
:1001300020F0A21BB30BE40BF50B661F771F881F83
:10014000991F1A9469F760957095809590959B0119
:0C015000AC01BD01CF010895F894FFCF71
:0C015C005445535420535452494E470060
:00000001FF
