:1000000012C024C023C022C021C020C01FC01EC0F7
:100010001DC01CC01BC01AC019C018C017C016C014
:1000200015C014C013C011241FBECFE5D4E0DEBF3D
:10003000CDBF10E0A0E6B0E0E8EFF0E002C0059030
:100040000D92AC36B107D9F744D054C0D9CF90BD8A
:1000500089B988E18AB980B5866880BD089581E054
:1000600087BB82E088BB82E390E0F1DF08955D9B6F
:10007000FECF8CB90895CF92DF92FF920F931F931A
:10008000DF93CF930F92CDB7DEB7F82E0F2D192F38
:10009000CC24DD2409C0F80181918F019983E7DF29
:1000A0000894C11CD11C9981AF2DB92FFD0101907D
:1000B0000020E9F73197EA1BFB0BCE16DF065CF355
:1000C0000F90CF91DF911F910F91FF90DF90CF9014
:1000D0000895C5DFB19B03C088B3827002C088B3A6
:1000E000836088BB80E690E0C6DFF4CF5F9BFECFE5
:0800F0008CB10895F894FFCFD4
:0C00F8005445535420535452494E4700C5
:00000001FF
