:1000000012C019C018C017C016C015C014C013C044
:1000100012C011C010C00FC00EC00DC00CC00BC06C
:100020000AC009C008C011241FBECFE5D4E0DEBF5E
:10003000CDBF18D02CC0E4CF90BD89B988E18AB972
:100040008AE080BD089581E087BB82E088BB83E3BE
:1000500090E0F2CF5D9BFECF8CB908955F9BFECF01
:100060008CB10895F0DFB19B03C088B3827002C0E9
:1000700088B3836088BB88E5EDDF2FEF81EE94E0E5
:10008000215080409040E1F700C00000ECCFF89490
:02009000FFCFA0
:00000001FF
