:1000000013C037C036C035C034C033C032C031C071
:1000100030C03BC02EC02DC02CC02BC02AC029C070
:1000200028C027C026C0BA0011241FBECFE5D4E0E7
:10003000DEBFCDBF10E0A0E6B0E0E2E7F2E002C034
:1000400005900D92A236B107D9F720E0A2E6B0E004
:1000500001C01D92A336B207E1F710E0C8E2D0E07C
:1000600003C02297FE01CCD0C632D107D1F75BD0B6
:10007000FEC0C6CF81E087BB82E088BB89B78160C4
:1000800089BF789485E083BF08951F920F920FB6C1
:100090000F9211248F9381E088BB8F910F900FBE38
:1000A0000F901F901895CF93C42F9B0140E050E014
:1000B00060E271EA87E090E063D02150310930BD01
:1000C00029B988E18AB9C13011F486E803C0C23089
:1000D00011F48EE880BDCF9108955D9BFECF6CB981
:1000E0000895EF92FF920F931F93CF93DF938C01AC
:1000F000EB017E018881882359F08A3019F46DE084
:10010000C801EBDF2196F7016081C801E6DFF1CF7E
:10011000DF91CF911F910F91FF90EF9008955F9B1A
:10012000FECF8CB10895CF93DF93CDB7DEB72F9775
:100130000FB6F894DEBF0FBECDBF9CDF82B74AE09A
:10014000BE016F5F7F4F90E05FD0BE016F5F7F4F5A
:1001500082E690E0C6DF60E670E082E690E0C1DF14
:100160002FEF80E792E0215080409040E1F700C0FF
:100170000000E4CF41E060E875E282E690E093CFD2
:10018000052E97FB16F400940FD057FD05D014D020
:1001900007FC02D046F408C0509540953095219553
:1001A0003F4F4F4F5F4F08959095809570956195A3
:1001B0007F4F8F4F9F4F0895A1E21A2EAA1BBB1BA2
:1001C000FD010DC0AA1FBB1FEE1FFF1FA217B30723
:1001D000E407F50720F0A21BB30BE40BF50B661F39
:1001E000771F881F991F1A9469F7609570958095FD
:1001F00090959B01AC01BD01CF010895EE0FFF1F4B
:100200000590F491E02D0994BB274A3031F49923ED
:1002100022F4BDE2909581959F4F01C0BB27FB0161
:100220005527AA27880F991FAA1FA41710F0A41BEF
:1002300083955051B9F7A05DAA3308F0A95DA19349
:10024000009779F7B111B1931192CB0100C0DC0195
:10025000FC01672F71917723E1F7329704C07C91FD
:100260006D9370836291AE17BF07C8F30895F89439
:02027000FFCFBE
:020272000A0080
:00000001FF
